:020000040800F2
:10000000607C002071020008871700084B1500086B
:1000100085170008CB040008451E000800000000FA
:100020000000000000000000000000008B17000826
:10003000CD04000800000000891700088D17000893
:100040008B0200088B0200088B0200088B0200085C
:100050008B0200088B0200088B0200088B0200084C
:100060008B0200088B0200088B0200088B0200083C
:100070008B0200088B0200088B0200088B0200082C
:100080008B0200088B0200088B0200088B0200081C
:100090008B0200088B0200088B0200088B0200080C
:1000A0008B0200088B0200088B0200088B020008FC
:1000B0008B020008311800083D1800088B02000868
:1000C0008B0200088B0200088B0200088B020008DC
:1000D0008B0200088B0200088B0200088B020008CC
:1000E0008B0200088B0200088B0200088B020008BC
:1000F0008B0200088B0200088B0200088B020008AC
:100100008B0200088B0200088B0200088B0200089B
:100110008B0200088B0200088B0200088B0200088B
:100120008B0200088B0200088B0200088B0200087B
:100130008B0200088B0200088B0200088B0200086B
:100140008B0200088B0200088B0200088B0200085B
:100150008B0200088B0200088B0200088B0200084B
:100160008B0200088B0200088B0200088B0200083B
:100170008B0200088B0200088B02000800000000C0
:100180008B0200088B02000800F002F800F060F813
:100190000AA090E8000C82448344AAF10107DA45E2
:1001A00001D100F055F8AFF2090EBAE80F0013F0D4
:1001B000010F18BFFB1A43F001031847181F000076
:1001C000381F000010F8013B0A4413F0030408BF75
:1001D00010F8014B1D1108BF10F8015B641E05D01B
:1001E00010F8016B641E01F8016BF9D1002D15D0D8
:1001F00010F8014B03F00C030C2BA1EB04040ABF15
:1002000010F8013BA4EB8314A4EB032405F10103D4
:1002100014F8016B5B1E01F8016BF9D5914238BFF0
:1002200010F8013BD1D3704700230024002500269D
:10023000103A28BF78C1FBD8520728BF30C148BF49
:100240000B6070471FB501F025FF1FBD10B510BD35
:1002500000F001F91146FFF7F5FF01F055FE00F03F
:100260001FF903B4FFF7F2FF03BC00F027F9000009
:100270000948804709480047FEE7FEE7FEE7FEE73A
:10028000FEE7FEE7FEE7FEE7FEE7FEE70448054976
:10029000054A064B70470000211800088901000834
:1002A00060760020607C002060780020607800206C
:1002B00053EA020C00F069802DE9F04B4FF0000684
:1002C000002B1FBFB3FA83F503FA05F424FA05F6F1
:1002D0005E4012BF1643B2FA82F502FA05F4C5F188
:1002E00020051EBF22FA05FC44EA0C04203556EA1C
:1002F000044C4FEA144418BF641C4FF000084FF040
:100300000009904271EB030C39D3002919BFB1FAEF
:1003100081F701FA07F6B0FA80F700FA07F6C7F19D
:1003200020071EBF20FA07FC46EA0C062037B6FB62
:10033000F4FCA7EB0507103F07F01F0BCBF12006DD
:100340000CFA0BFB2CFA06F644BFB3460026202F0E
:10035000A4BF5E464FF0000B5BEA060C08BF4FF0EF
:10036000010B19EB0B09ABFB027C48EB0608C01B29
:1003700006FB02CC0BFB03CC71EB0C01C1E70B4677
:10038000024641464846BDE8F08B13B54FF00000E9
:100390004FF00001AFF30080BDE81C40704710B57E
:1003A000203AC0F00B80B1E81850203AA0E818506D
:1003B000B1E81850A0E81850BFF4F5AF5FEA027C2E
:1003C00024BFB1E81850A0E8185044BF18C918C09D
:1003D000BDE810405FEA827C24BF51F8043B40F83E
:1003E000043B08BF7047D20728BF31F8023B48BF23
:1003F00011F8012B28BF20F8023B48BF00F8012B61
:1004000070474FF0000200B51346944696462039D7
:1004100022BFA0E80C50A0E80C50B1F12001BFF4BD
:10042000F7AF090728BFA0E80C5048BF0CC05DF823
:1004300004EB890028BF40F8042B08BF704748BF71
:1004400020F8022B11F0804F18BF00F8012B7047E5
:10045000704770477047754600F02CF8AE460500AF
:100460006946534620F00700854618B020B5FFF7CF
:100470000DFFBDE820404FF000064FF000074FF0A1
:1004800000084FF0000B21F00701AC46ACE8C009B2
:10049000ACE8C009ACE8C009ACE8C0098D467047BB
:1004A00010B50446AFF300802046BDE81040FFF7CA
:1004B000D8BE00000048704700760020014918208F
:1004C000ABBEFEE7260002007047FEE77047000063
:1004D00070B5044600F00CF90546601C02D00448D3
:1004E0000078044400F004F9401BA042FAD370BD28
:1004F0000C3000202DE9F84FDFF8BCA100220125C7
:1005000003264FF00F090AF1040BAAF1040E00BFF5
:100510000B6805FA02F42340A34270D10F7907F06B
:100520000307012F01D0022F16D187684FEA420836
:1005300006FA08FC27EA0C07D1F80CC00CFA08FCF4
:100540004CEA070CC0F808C04768A7430C79C4F30D
:10055000001494403C4344600C79E443A4070AD05F
:10056000C4684FEA420C06FA0CF7BC438F6807FADE
:100570000CF72743C7600C7904F00304022C12D156
:10058000D40800EB840CDCF820405707FF0E09FA72
:1005900007F824EA0804D1F8108008FA07F848EAB6
:1005A0000408CCF8208004684FEA420C06FA0CF7E5
:1005B000BC430F7907F0030707FA0CF727430760DE
:1005C0004C6814F4403F70D03C4C276847F4804797
:1005D0002760246822F0030704F480440094384C18
:1005E00007EB040CDCF8084897074FEA177809FA7C
:1005F00008F7BC43334FB84202D1002724E054E04F
:10060000314FB84201D101271EE0304FB84201D12D
:10061000022719E02E4FB84201D1032714E02D4FD5
:10062000B84201D104270FE02B4FB84201D1052772
:100630000AE02A4FB84201D1062705E0284FB84208
:1006400001D1072700E0082707FA08F72743CCF86D
:100650000878DAF800405746D1F804C09C435FEAB6
:10066000CC2C00D51C433C60DBF800405F46D1F841
:1006700004C09C435FEA8C2C00D51C433C60DEF830
:1006800000407746D1F804C09C435FEA8C3C00D51B
:100690001C433C60084F083F3C68D1F804C09C43B1
:1006A0005FEACC3C00D51C433C60521C102AFFF48E
:1006B0002FAFBDE8F88F0000083C014044380240ED
:1006C00000300140000002400004024000080240E7
:1006D000000C0240001002400014024000180240CA
:1006E000001C02400AB1816170470904FBE7000069
:1006F00001488068704700000C3000200248816883
:1007000002781144816070470C3000200B4810B50E
:10071000016841F400710160016841F48061016089
:10072000016841F480710160032000F06FF80F2030
:1007300000F006F800F024F8002010BD003C024054
:1007400070B50D4D04464FF47A712878B1FBF0F086
:100750000A490968B1FBF0F000F098FB48B9102C89
:1007600007D200222146501E00F030F800206C60B5
:1007700070BD012070BD00000C300020183000203A
:100780000A4808B5016841F480410160006800F43E
:10079000804000900548001F016841F080510160D1
:1007A000006800F08050009008BD0000443802400E
:1007B000002809DB00F01F02012191404009800060
:1007C00000F1E020C0F8001170470000F0B40E4BBB
:1007D0001B680C46C3F30223C3F10705042D00D99F
:1007E0000425191D072901D2002300E0DB1E012684
:1007F00006FA05F1491E214099409E40761E16409A
:100800003143F0BC01F01FBB0CED00E0064900F0E5
:10081000070208684FF6FF03184040EA0220034A27
:1008200010430860704700000CED00E00000FA057E
:100830002DE9F0418AB0040005D094F8BD04266883
:10084000002520B108E001200AB0BDE8F08184F85D
:10085000BC54204600F05EF8032084F8BD04F06B21
:10086000C00500D42561206801F07AFA04F1100176
:10087000282288466846FFF792FD94E80F0001F0B1
:100880004DF90226C8BB0021206801F0ADFA002016
:1008900001270EE000EBC00104EB810181F83D70FF
:1008A00001F83C0F08810D71CD600D61401CC0B294
:1008B0008D6161688142EDD8002011E000EBC0013C
:1008C00004EB810181F87D5281F87C0281F880522D
:1008D000C1F88852C1F88C52401CC0B2C1F8945281
:1008E00061688142EAD8282241466846FFF757FDF1
:1008F00094E80F0001F07AF910B184F8BD64A2E722
:1009000084F8385084F8BD74206801F061F9002043
:100910009AE7000010B586B0044614216846FFF738
:1009200070FD2068B0F1A04F27D115480021026862
:1009300042F001020260006800F0010005904FF4EF
:10094000C05000900220CDE90101032003900A204D
:10095000049069460B48FFF7CDFD0948001D01686A
:1009600041F08001016006481430016841F4804183
:100970000160006800F48040059006B010BD0000E2
:1009800030380240000002402DE9F0470E460500D5
:1009900065D0DFF81481D8F80000F7B200F0070046
:1009A000B04207D288F80070D8F8000000F00700C5
:1009B000B04254D128683D4C810712D5400703D579
:1009C000206840F4E05020602878000703D52068B4
:1009D00040F4604020602068A96820F0F0000843DF
:1009E00020602878C0072DD0304968680839012870
:1009F00012D0022813D0032811D0096889070029D2
:100A00002DDA216821F0030101432160FFF770FE18
:100A1000814641F2883A0EE009688903EFE70968E8
:100A20008901ECE7FFF764FEA0EB0901514502D90B
:100A30000320BDE8F0872068696800F00C00B0EB87
:100A4000810FEFD1D8F80010404601F00701B14204
:100A500007D90770006800F00700B04201D00120FC
:100A6000E7E72878400705D52068E96820F4E050DA
:100A7000084320602878000706D52068296920F4FB
:100A8000604040EAC100206000F018F82168084A80
:100A9000C1F30311515CC84006490860064800686C
:100AA000FFF74EFE0020C4E7003C02400838024039
:100AB000C22000081830002010300020154810B562
:100AC000006810F00C02144813D01449042A0FD007
:100AD000082A0ED10F4C241F2268236802F03F021F
:100AE0005B0207D52068C0F38810A0FB010106E077
:100AF000084610BD2168C1F38811A1FB0001002345
:100B0000FFF7D6FB2168C1F30141491C4900B0FB46
:100B1000F1F010BD083802400024F40040787D0157
:100B20002DE9F84F04006ED02078DFF84C93C00711
:100B3000A9F104054AD009F104000168C1F381015B
:100B4000012908D00068C0F3810002280AD1D9F831
:100B50000000400206D52868800337D56068002869
:100B6000E1D033E06068B0F5803F10D0B0F5A02F41
:100B7000286810D020F480302860286820F4802075
:100B800028606068A8B1FFF7B3FD06460DE028684D
:100B900040F48030F4E740F480202860F7E700BF9D
:100BA000FFF7A6FD801B642873D828688003F7D55B
:100BB0000CE0FFF79DFD064605E000BFFFF798FD3E
:100BC000801B6428F0D828688003F7D42078DFF8E9
:100BD000AC8280074FF0000A3ED5A748001D01688F
:100BE00011F00C0F08D00068C0F3810002280BD16F
:100BF000D9F80000400207D42868800716D5E068BD
:100C0000012800D112E033E1E068B8B10120C8F852
:100C10000000FFF76DFD064605E000BFFFF768FD29
:100C2000801B0228C0D828688007F7D5286821696A
:100C300020F0F80040EAC10028600DE0C8F800A0EC
:100C4000FFF756FD064604E0FFF752FD801B022821
:100C50001FD828688007F7D42078000722D5864F50
:100C600087486169703771B101210160FFF740FD6C
:100C7000064604E0FFF73CFD801B022809D83868CF
:100C80008007F7D50EE0C0F800A0FFF731FD06465B
:100C900005E082E0FFF72CFD801B02287DD8386834
:100CA0008007F7D42078400768D5DFF8CCB100275B
:100CB0000BF13C0BDBF80000C0000BD4DBF800109C
:100CC00041F08051CBF80010DBF80000012700F064
:100CD000805000906B4E3068C00510D4306840F4EE
:100CE00080703060FFF704FD009005E0FFF700FD25
:100CF0000099401A022850D83068C005F6D55E4EDB
:100D0000A0686C3601280FD00528306810D020F07C
:100D100001003060306820F004003060A068B8B195
:100D2000FFF7E6FC00900FE0306840F00100F4E7C8
:100D300040F004003060F7E7FFF7DAFC0099411A51
:100D400041F28830814266D830688007F4D50EE0E1
:100D5000FFF7CEFC009007E0FFF7CAFC0099411AAC
:100D600041F28830814256D830688007F4D42FB1E0
:100D7000DBF8001021F08051CBF80010A069C8B357
:100D80003D49091D0968C1F3810102294AD00228A1
:100D9000504607D0C8F8600000E03CE0FFF7A8FC30
:100DA00004463BE04746C8F86000FFF7A1FC064652
:100DB00005E000BFFFF79CFC801B02282BD82868A9
:100DC0008001F7D4D4E907010843A16A2E4A4908F3
:100DD00002EB0141626A41EA8211084394F82C1047
:100DE00040EA0161C9F8001001203866FFF780FC75
:100DF000044606E03EE000BFFFF77AFC001B022835
:100E000009D828688001F7D534E000BFFFF770FCEF
:100E1000001B022802D90320BDE8F88F2868800152
:100E2000F4D427E00128F7D0D9F80000E26900F4F3
:100E3000800191421CD1226A00F03F01914217D1FA
:100E400047F6C071626A0140B1EB821F10D1A26AFD
:100E50004FF0FF3300F4403103EB5202B1EB024F8D
:100E600006D194F82C1000F07060B0EB016F01D047
:100E70000120D1E70020CFE70438024000004742BC
:100E8000800E4742007000400000FFFF10B5401E7A
:100E9000B0F1807F01D3012010BD4FF0E0246061EC
:100EA0000F21601700F0CFFF0020A0610720206114
:100EB000002010BD7047704770B590F83C20012AA3
:100EC00032D0012480F83C40022280F83D200368A3
:100ED0005A689D6822F070060A6832435A60134BC4
:100EE00002689A4214D0B2F1804F11D0104B9A424E
:100EF0000ED0104B9A420BD00F4B9A4208D00F4B9A
:100F00009A4205D00E4B9A4202D00E4B9A4204D11F
:100F1000496825F080031943916080F83D40002125
:100F200080F83C10084670BD022070BD00000140F2
:100F30000004004000080040000C00400004014094
:100F4000004001400018004010B5040003D094F8A0
:100F50003D0010B107E0012010BD002084F83C00E6
:100F6000204600F01FF8022084F83D00211D206873
:100F700000F06AFC012084F8460084F83E0084F802
:100F80003F0084F8400084F8410084F8420084F86F
:100F9000430084F8440084F8450084F83D000020B4
:100FA00010BD000008B5154A0168154891420ED1E0
:100FB000016841F0020101600068002200F00200B7
:100FC000009011461D20FFF701FC1D2010E00D4A86
:100FD000914211D1016841F00401016000680022D2
:100FE00000F00400009011461E20FFF7EFFB1E20CA
:100FF000BDE80840FFF7DCBB08BD0000000400406E
:10100000403802400008004090F83D10012901D00E
:1010100001207047022180F83D100168CA6842F043
:101020000102CA6000681149884214D0B0F1804FB3
:1010300011D00F4988420ED00E4988420BD00E497C
:10104000884208D00D49884205D00D49884202D017
:101050000C49884204D1816801F00701062903D0B8
:10106000016841F00101016000207047000001406B
:101070000004004000080040000C00400004014053
:10108000004001400018004070B5044690F83C0054
:101090000025012817D0012684F83C60022084F83E
:1010A0003D002068826822F0770222F47F4282604D
:1010B0000868502838D00DDC20284FD005DC90B3CC
:1010C000102811D14AE0022070BD302846D04028B7
:1010D0000AD13BE060282FD070280DD0B0F5805F9A
:1010E00003D0B0F5005F12D0012584F83D600020E8
:1010F00084F83C00284670BDCB68D1E90121206806
:1011000000F013FC2068816841F0770109E0CB68AA
:10111000D1E90121206800F008FC2068816841F4D1
:1011200080418160E1E719E0CA684968206800F001
:10113000D1FC5021206806E0CA684968206800F0A8
:10114000DAFC6021206800F0FAFBCEE7CA68496843
:10115000206800F0BFFC40212068F4E722680146C7
:101160001046F0E7704770B50446006801694FF01B
:101170000005C943890715D4C168C943890711D43B
:10118000E91E0161012020772068806980072046E0
:1011900002D0FFF7E7FF04E000F0C0F8204600F0BF
:1011A00063F9257720680169C943490717D4C168E5
:1011B000C943490713D46FF004010161022020776D
:1011C0002068806910F4407F204602D0FFF7CAFFF4
:1011D00004E000F0A3F8204600F046F925772068E7
:1011E0000169C943090716D4C168C943090712D464
:1011F0006FF008010161042020772068C069800732
:10120000204602D0FFF7AEFF04E000F087F820464A
:1012100000F02AF9257720680169C943C90617D467
:10122000C168C943C90613D46FF0100101610820D9
:1012300020772068C06910F4407F204602D0FFF775
:1012400091FF04E000F06AF8204600F00DF92577E0
:1012500020680169C943C90708D1C168C943C907E2
:1012600004D1891E0161204600F064F920680169FB
:10127000C943090609D4C168C943090605D46FF0FA
:10128000800101612046FFF715FE20680169C9430E
:10129000490609D4C168C943490605D46FF0400125
:1012A0000161204600F050F920680169C9438906B0
:1012B0000BD4C168C943890607D46FF020010161CE
:1012C0002046BDE87040FFF7F6BD70BD10B586B092
:1012D000044614216846FFF794F82068B0F1804F67
:1012E00015D10C480021026842F002020260006839
:1012F00000F002000590082000900220CDE90101D5
:101300000120CDE9031069460348FFF7F3F806B062
:1013100010BD00003038024000040240704770B534
:10132000044690F83C0000260D4601280FD001200D
:1013300084F83C006AB1042A1DD0082A2FD00C2A58
:101340003FD00126002084F83C00304670BD0220CA
:1013500070BD206800F0FCFA2068816941F0080146
:1013600081612068816921F00401816120688169BF
:101370002A69114311E0206800F01AFB2068816996
:1013800041F4006181612068816921F4806181619B
:10139000206881692A6941EA02218161D2E72068D7
:1013A00000F03CFB2068C16941F00801C161206880
:1013B000C16921F00401C1612068C1692A69114332
:1013C00011E0206800F05EFB2068C16941F4006113
:1013D000C1612068C16921F48061C1612068C1696F
:1013E0002A6941EA0221C161ACE710B5040003D0CB
:1013F00094F83D0010B107E0012010BD002084F8F2
:101400003C00204600F01EF8022084F83D00211D1B
:10141000206800F019FA012084F8460084F83E00A4
:1014200084F83F0084F8400084F8410084F84200CA
:1014300084F8430084F8440084F8450084F83D00B3
:10144000002010BD08B50068B0F1804F08D10548F4
:10145000016841F001010160006800F001000090A6
:1014600008BD0000403802407047000010B5044637
:10147000022249B104290ED0082913D094F8410062
:10148000012816D0012010BD94F83E000128F9D1A2
:1014900084F83E200FE094F83F000128F2D184F850
:1014A0003F2008E094F840000128EBD184F8402068
:1014B00001E084F841200122206800F029FA164951
:1014C0002068164A884201D0904203D1436C43F40D
:1014D000004343642068884213D0B0F1804F10D09D
:1014E0000F4988420DD00F4988420AD00E498842E0
:1014F00007D0904205D00D49884202D00C4988425D
:1015000004D1816801F00701062903D0016841F088
:1015100001010160002010BD0000014000040140F5
:101520000004004000080040000C00400040014062
:101530000018004000680349884201D100F00ABD4C
:1015400070470000000800407047FEE72DE9F041B9
:1015500086B014216846FEF754FF2C484FF000086F
:10156000016841F080010160016801F0800105918E
:10157000016841F001010160016801F0010105917C
:10158000016841F0020101600068214E00F0020094
:10159000059000220C213046FFF7A4F8012248F202
:1015A000F0013046FFF79EF81A4F012247F207413B
:1015B0003846FFF797F80420012402258DE8310012
:1015C000694630460395FEF795FF48F2F800CDE9ED
:1015D000000469463046CDE90245FEF78BFF07203F
:1015E000CDE9000469463846CDE90245FEF782FFA1
:1015F0004FF4E840CDE90004CDE902486946384699
:10160000FEF778FF06B0BDE8F081000030380240F8
:10161000000002400004024010B58AB00024079484
:101620001C2168460894FEF7ECFE15484FF08041F7
:1016300001600121C0E90114DC21C0E903148461C7
:10164000FFF7D3FE08B172B6FEE7079407A90C486E
:101650000894FFF731FC08B172B6FEE76020CDE9CF
:10166000000402940422694605480494FFF757FEDB
:1016700008B172B6FEE70248FFF728FE0AB010BDB7
:101680001C30002010B586B0002417480094019447
:101690000294039404941349059401604721C0E91E
:1016A00001144EF66021C0E903148461FFF74CFC7D
:1016B00008B172B6FEE74FF48050009069460A48C0
:1016C000FFF7E2FC08B172B6FEE7049404A90648ED
:1016D0000594FFF7F1FB002801D072B6FEE706B0D3
:1016E00010BD0000000400406430002010B586B03A
:1016F000002416480094019402940394049412491F
:10170000059401604721C0E901141D21C0E90314BB
:101710008461FFF719FC08B172B6FEE74FF4805000
:10172000009069460948FFF7AFFC08B172B6FEE7C2
:10173000049404A905480594FFF7BEFB002801D0D6
:1017400072B6FEE706B010BD00080040AC300020C5
:101750000B4810B54FF0A041016004214160022206
:101760000021C0E90321C0E9062101624162C16292
:101770000163FFF75DF8002801D072B6FEE710BDE7
:10178000F4300020FEE7FEE770477047FEF7B6BF73
:1017900030B593B030216846FEF733FE14210CA813
:1017A000FEF72FFE1C480025016841F080510160C2
:1017B000006800F0805011901848016841F48041A1
:1017C00001600068022400F4804011900120009024
:1017D000000401908001CDE9064019200890902076
:1017E000CDE9090403200B906846FFF799F908B189
:1017F00072B6FEE70CA90F2081E831004FF480504B
:10180000CDE90F0502210CA8FFF7BEF8002801D092
:1018100072B6FEE713B030BD4038024000700040A1
:101820000248016841F470010160704788ED00E0F2
:101830000148FFF798BC0000643000200148FFF722
:1018400092BC0000AC300020F0B50268254C264D5B
:10185000264E274F274B4FF0804CA04209D06045C1
:1018600007D0A84205D0B04203D0B84201D0984278
:1018700004D122F0700E4A6842EA0E02A0421BD048
:10188000604519D0A84217D0B04215D0B84213D045
:10189000984211D0184DA8420ED0184DA8420BD036
:1018A000174DA84208D0174DA84205D0164DA842A2
:1018B00002D0164DA84203D122F44075CA682A43CB
:1018C0004D6922F080022A4302608A68C2620A6877
:1018D0008262A04201D0984201D1096901630121CD
:1018E0004161F0BD000001400004004000080040DC
:1018F000000C004000040140004001400044014051
:101900000048014000180040001C0040002000403A
:1019100010B501F01F030121046A99408C43046251
:10192000016A9A401143016210BD10B5846842EA11
:10193000032224F47F440A432243826010BD82685C
:1019400022F070020A4342F00701816070470000F4
:10195000F0B5026A22F001020262036A42688469F9
:10196000124E24F073050C682C4323F002058B689B
:101970002B430D4DA84201D0B04205D123F00807FA
:10198000CB683B4323F00403A84201D0B04205D109
:101990004D6922F4407215438A692A43426084618A
:1019A000496841630362F0BD00000140000401404A
:1019B000F0B5026A22F010020262026A436884698A
:1019C0000D6824F4E64444EA05248D6822F02002E0
:1019D00042EA05120F4D104EA84201D0B04206D186
:1019E000CF6822F0800242EA071222F04002A842A9
:1019F00001D0B04207D14D6923F4406343EA850327
:101A00008D6943EA850343608461496881630262AA
:101A1000F0BD00000000014000040140F0B5026A82
:101A200022F480720262026A4368C46922F400727E
:101A300024F073050C68124E2C438D6842EA05228F
:101A40000E4DA84201D0B04206D1CF6822F4006208
:101A500042EA072222F48062A84201D0B04207D1B4
:101A60004D6923F4405343EA05138D6943EA051396
:101A70004360C4614968C1630262F0BD0000014077
:101A80000004014030B5026A22F480520262046A06
:101A90004268C3690D6823F4E64343EA05238D6871
:101AA00024F4005444EA0534084DA84202D0084DFD
:101AB000A84204D14D6922F4804242EA8512426074
:101AC000C36149680164046230BD00000000014048
:101AD0000004014010B5036A046A24F001040462A2
:101AE000846924F0F00444EA021423F00A020A4351
:101AF0008461026210BD10B5036A23F01003036213
:101B00008369046A23F4704343EA023224F0A00399
:101B100043EA01118261016210BD000070B5044604
:101B200006990A9E049D0D98012916D0E06840F0A0
:101B30004000E060204600F02BF8A16B1EB321F4BA
:101B40008031A163012D07D1A16841F00601A16098
:101B5000A16841F02001A16070BDA16B21F480312A
:101B6000A163E168094A1140E160E16821F4401194
:101B7000E160012803D1E06840F48010E060204675
:101B800000F006F8DEE741F48031DAE7BFFFBDFF81
:101B900008B500220D490092009B5B1C00938B420C
:101BA0000CD80369002BF7DA0092026942F00102B7
:101BB0000261009A521C00928A4201D9032008BD9A
:101BC0000269D207F5D1002008BD0000400D0300D6
:101BD000D0F8001E21F00301C0F8001ED0F8041850
:101BE00041F00201C0F80418002070472DE9F04FC1
:101BF00000250E460446DDF82CC0DDF824B0109F09
:101C00002846294604EB8002C2F80411401C0F2824
:101C1000F8D32046C7B1806B20F40012A263A06BFA
:101C200040F40022A26308468846C4F8000ED4F8A7
:101C300000182046C4F80018BCF1010F16D0D0F8E7
:101C4000001841F0030116E0D0F8040840F0020249
:101C5000C4F80428A06B40F40012A263A06B20F427
:101C60000022A263A06B20F48022DBE7D0F80018EA
:101C70000BB141F00101C0F80018102100F094F8F8
:101C800000B10125204600F071F800B10125404661
:101C9000C4F81088C4F81488C4F81C8800214FF0D8
:101CA00000694FF0904A4FF67F3314E004EB411285
:101CB000D2F800C9BCF1000F06DA11B1C2F800A9D0
:101CC00004E0C4F8009901E0C2F80009C2F8100964
:101CD000C2F80839491C8E42E8D8002115E000BF3F
:101CE00004EB4112D2F800CBBCF1000F06DA11B1BF
:101CF000C2F800AB04E0C4F8009B01E0C2F8000B9E
:101D0000C2F8100BC2F8083B491C8E42E8D8D4F840
:101D1000101821F48072C4F81028A0616FF0804080
:101D20006061BBF1000F03D1A06940F01000A06119
:101D3000A06909490843A0610C9818B1A06940F056
:101D40000800A061012F03D1A06904490843A061E4
:101D50002846BDE8F08F000000383C8004000040B9
:101D6000816821F0010181600020704708B50022E0
:101D70000C490092009B5B1C00938B420AD80369BC
:101D8000002BF7DA009210220261009A521C009296
:101D90008A4201D9032008BD0269D206F5D4002089
:101DA00008BD0000400D030018B500230D4A009344
:101DB000009C641C009494420CD80469002CF7DA4F
:101DC0000093202343EA811101610099491C00918D
:101DD000914201D9032018BD01698906F5D400207C
:101DE00018BD0000400D030070B50446C068002512
:101DF00020F0C040E060012901D079B120E0E06826
:101E000040F00050E0600120FEF762FB60696D1C4D
:101E100010F0010F10D1322DF5D30DE0E06840F045
:101E20008040E0600120FEF753FB60696D1C10F0FC
:101E3000010F01D0322DF5D3322D01D0002070BD1D
:101E4000012070BDFEE70907090E002804DB00F140
:101E5000E02080F80014704700F00F0000F1E0204F
:101E600080F8141D704700002DE9F04F244ADFF878
:101E700094B000244FF0010E0026E00100F5006A46
:101E800000250EFA06F106EBC40905EBC41C0CEBA9
:101E9000020303F58057002097F8008818EA010F25
:101EA00000D040203F780F4201D040F0080012F8E7
:101EB0000C700F4201D040F0040003F500531F786E
:101EC0000F4201D040F010000AEB0507D75D0F422A
:101ED00001D040F0200093F800380B4201D040F0D0
:101EE000800005EBC9176D1C0BF80700802DCCDBBB
:101EF000761C082EC4DB641C102CBDDBBDE8F08F03
:101F00000C00002000360020FEF700FCFFF740FC2C
:101F1000FFF71CFBFFF780FBFFF7B4FBFFF7E6FBC7
:101F2000FFF716FC04210948FFF7A0FA0748903094
:101F3000FFF76AF8FFF798FF054C00252078012885
:101F4000FCD12570FFF790FFF8E700001C3000205F
:101F5000000000202DE9F04FDFF884900025D9F82B
:101F6000000085631F4B204EDFF880A05A78197857
:101F7000DFF87CB0B75C1F4C28464FF4803E01EB85
:101F8000C70700BF00EBC7181AF80880CBF8148009
:101F9000C4F800E04FF0010CC4F800C0401C8028D9
:101FA000F0DB1148143830F81110D9F800008163C3
:101FB000B05C00F021F84FF48050206000042060F5
:101FC0001878401CC0B21870082807D11D705878C6
:101FD000401CC0B25870102800D15D70BDE8F08F71
:101FE0001C30002004000020B22000080036002031
:101FF0000000024018040240174910282BD2DFE8E5
:1020000000F0080A0C0E10121416181A1C1E2022BA
:10201000242712481EE012481CE012481AE0124819
:1020200018E0124816E0124814E0124812E0124874
:1020300010E012480EE012480CE012480AE0124884
:1020400008E0124806E0124804E04FF4193001E0BD
:1020500046F2024008607047180402400000026423
:1020600002000064004002240240002400040260D8
:1020700002040060004402200244002000200244C8
:1020800002200044006002040260000400240240B8
:10209000022400404FF04070E1EE100A7047020049
:1020A0000400080010002000400080000001000231
:1020B00000040008040C020A060E0109050D030BBA
:1020C000070F0000000000000000010203040607E3
:1020D00008090000F4200008000000201C30000067
:1020E000C40100080C3C00081C300020444C0000D7
:1020F0002802000892000120051E1E1F1F04110661
:10210000321F076101100A1E191A19191B1A1B190F
:1021100001A21D1921305131A130600614100506AD
:10212000063D50071C1A1A1A1914241315160E62AC
:102130001C5D80070B05050819194C814A717F3019
:10214000061D1C1C1B1C0113191D0C231C1C05E364
:102150001B1D80C19530071814090506122520049F
:102160001E1A1B015215601317170F40041C1B1B6E
:10217000A700071008050611181C4065011510304E
:10218000061C181918182F521891150B031B171A33
:102190008024091E1B180D0406051C5020041D1662
:1021A0001AB26180100418191DC23717175600089B
:1021B00014090505071A161F8031FD421BFC31CAA0
:1021C000461829161E1121C451B70112FF11A4206F
:1021D00006120A040510B2271A183F531B17D323FF
:1021E0001B188012197540081E1C120705070FDC0A
:1021F00001158084041B16176A871913F40005174C
:102200001D17191A7E213914071711030504128BA3
:1022100027171AB0571918DE371D17C0158FE80990
:102220001E180505040A18173C81C615F96B1B1BFF
:102230000970061E1C161719F4121ED5411C011434
:1022400081240D1D1A130D06040B121A1F1519F007
:1022500071E62B1E160F198F000A151D140E0505A9
:102260000C111A1A7D15BC9B18161BA4071D1813F8
:102270001C131874031817178030111E1E16170729
:10228000040506151F13181A1A1B1A4A313712159E
:102290000E000D161917141F1B0904040413181B34
:1022A000FD1C041F1B1B29037D2A0350071F1D153E
:1022B000141D16911D74031C041E1D1D49030118D5
:1022C0003E10061E1A180F0CE1180513121719C23A
:1022D0007214482A16D0000C171713150F07040A9A
:1022E0000E151B1D807C0819171B1D1C1A1D0803C9
:1022F000380712161F181319472180121A1E0317C8
:1023000016178019EA100A18130604030712161884
:10231000027E129B0313171602100417110AFE0601
:1023200019104280081E1A160E0F1011616C081A3F
:1023300014131C1813167304000A171E1912101018
:102340000D141A1D81800F1C1B160F0B08050B0F97
:102350001114171614D7140C161715120F0B0707A4
:102360000B0E14400116FF80091D1614050302060A
:1023700015B88006150F191813C80C08141809028F
:10238000030410163E0349EC11308C090D040507B7
:102390000A131616E503080E171B1616140C06056D
:1023A00003091217181DFC28071D1B120B0503C07B
:1023B0004D6F031C0A1D1D1B14171A1B131804054F
:1023C00045B31C041B140F3F030404180F1A1B828F
:1023D00019F71C1C130E0B0B090C0E0E0E1112120A
:1023E000131313121212100E0F0C090A0B0D110900
:1023F000030D10BB04611250071A180E030503FEEB
:102400001E1E870418091B1F141F1A1F141D956D0B
:102410007D051C061B07040408C0030E171E0604D6
:102420001C0D1F1D1919120E080507070603EB04E2
:102430001C050807060514031D76044C060E11162C
:10244000191B120602121E8020081D19110904060C
:1024500010FE2DFE04210114071F191B181A190A5A
:10246000210F3DFD043C061D13080406C00401179E
:10247000801D2C05200C1714110E0D0C0B090807DC
:10248000080111FB1B0C0E123E1B54050515001D07
:10249000C0053C050A0505066D032F1919AF062D69
:1024A000190719395DC4041D9A033D4D061E0CE23F
:1024B000030F14191783066DB8041D2F0610081892
:1024C00013100F0E0B0A821C08090B0D0E0F1117AB
:1024D0000207021A1F012C081E1813070505127A9D
:1024E00003131A18FF3DB8053C06170D0E0D17AD66
:1024F000061DFC031D7E051DCD062F1508E50501F3
:102500001D4C1D2E061E19010315FD1B1111041C67
:1025100004151718D803021B1E3310041E150EDAFB
:102520004DCA075DA0055C091812100405041012BD
:1025300005073F181685030C07190C040407191A20
:1025400003035DAD041C041E1D1ACC052D8A077DF6
:10255000FC070E171EF70511FF5C0617080504118E
:10256000AF0349284C09150C16090508160C490338
:102570003DC1062D4E080006170505051516C86154
:102580007F1DB10649365E1D4B07011D801B1319C7
:10259000FD49E62F1D16AB074C0B1E1F12061C0D26
:1025A000050B1C0504076E18B60719D10F1311137C
:1025B000FF03821E80918ABD2E080E151E40073C27
:1025C000081E14110405091EEA071D08052501301F
:1025D0000B160A101D0F040D1D0F0A8F1D92081DEA
:1025E00002081902EC060F04050B17C1081F1D187D
:1025F0005A041C0419181A26071618EE2D86031DF6
:10260000B60910051B1818193919391004191A1AA6
:102610000C1DD7081E1ED109BF181802083DEE0573
:102620002C06150A05040EF60929DD29023C0D1FAA
:102630000E031A1E10040E1D19020FC5072E164890
:10264000061DBF041A1815DF1A19420318081B12B9
:10265000121C1F1412231C0617110E11183B06180A
:102660000413131C421C0512131E1346061C061DE0
:10267000121516108E042C0511111C179304EE115F
:1026800002091C071C170705041375042D750A1091
:10269000041E191568240B160B101B1104101B0EB9
:1026A0000B001E19450A1D81082DD8092180BA1773
:1026B0006F1D2B06100C0A0A1C1E0D0B121E130D8B
:1026C0000D03100C161C0B0D0B141E0F0B0C0C160F
:1026D0001C07111F1B0B0F17020620090B12111DDF
:1026E000120C0C1493CDBD08131A19561F191BA3F5
:1026F0000424071A1B171E1E12813C0A1305191207
:10270000041218031378031F151FC004AC0B1B1A07
:1027100018161F04050319158809118010141903D0
:10272000031C1E07040D1E0803091808010C1C03D6
:10273000060D1DFB041008051F06030C1F18161CB0
:1027400008120C030413121E1F06EC0515141217B1
:102750003A07161A562C041B1B16300315BF2218F5
:10276000601009160E160D040E160C901C061F1A8A
:10277000151A1D0D062D4808F0061F0505031880C3
:102780001D59081C0B1506050E1B0503101C13A470
:10279000061C07030A06091904D304221F891C0D0D
:1027A0001804091B1810040419181E0E260BADC4BA
:1027B000064DD9081C06161B040603A50A2D680A37
:1027C000155D231E0E541E16530B18040A141555BE
:1027D0001F1F15BE0819812D0F0C1180B304168020
:1027E0001D6C0311BF3C090A0C06060E1903047781
:1027F0000A200F1B040D080414021004061F07050D
:102800000E8028061E1D14040357CC0605060E0C68
:102810001913032D5E031004050604E31DA80B1D08
:102820003A0A1E1C69092DC70A3C05170F08118AB0
:102830000B15191DFC08219D1D0605D70506004135
:10284000801E0FDC0A10040E1A02801DAA0A1180D5
:1028500040090E040C091205061E801407081E1EEE
:10286000140404D61E0FA209EF121C33041C081A0C
:102870001A060605171E390B1D26061E1BF3081E19
:10288000108E0914051A1B150C121D790619FD135B
:102890001A19193D560A152AE61A00193F1404158B
:1028A000190880100B0205171F1B11131B030DEFD6
:1028B00014060F1305071E96111FA180FF1B198513
:1028C000061C071C180906051265043DF80C3E1A83
:1028D0007A0C1D02081D0A043DFD071DD2031D4E82
:1028E000051D090D14041B171DAA6D00037D590455
:1028F0001A1E801B171C80200C1C0A040D161009C0
:10290000151B020C13180412040571140609150F87
:10291000030E001603801E1EE705FB1211801C0922
:102920001F160D05050E1F17710DBC051B1B1D1A6B
:102930008E0D1D89071DFC06121BFE111D1C0416A1
:102940001F17E70CCD430B2D9B091C2101011A1EFB
:1029500006020C1E1203040D0402161B000A1E03BD
:10296000021E1003041F1302040C0502FE0B1C04BC
:10297000140202450AE0080D030408090610801C31
:102980000615140506097E041D7A0D1D790E2D36D7
:10299000067DBF0B2E1E130315F9211B1D9E041E61
:1029A0000FE30AEE17040A1C0D1B0F0F1C1E110F5C
:1029B000141E18110F7B07100A1A1C0E131E10107C
:1029C0001E1704131910122D58081C04190F0FC5D7
:1029D0000A1C041510101409FD820D2614571E1D23
:1029E000DF039C0B13151617181716161518400A37
:1029F0001F1616410B2C071715141518180006FE84
:102A00001300061DAE081D710615AB11AE33191B60
:102A10000C1DB4072DB7071DD40511123D520B3103
:102A20001F2DDA081DE007FD7B0B2D7F081E127E8F
:102A30000B3DE4041DAD057E18250F210D3E184900
:102A4000071D00051E1CE60300044F06161680FD38
:102A500019093D001011031D3A060E1C193C086DA2
:102A600000101DED042DA50C1C091B16130E0905E5
:102A7000040412054D3A0C1F0B03F90B1C04070B41
:102A800011C304152511E70E1708820DBD00101D96
:102A900007105F161B0A102D9803011C811D0010E2
:102AA00019DA158130061D1A110907804D0D102CF9
:102AB000051E0C0303830A120DC71D85033D00107C
:102AC0000E171D010ECD00103F131D1F052E1C50AB
:102AD0000D06141A287DBC0D2D00102E06620A1E4C
:102AE0001D690571801D380F31801DFE0B2DC50B32
:102AF00021FF0C0419071A17BF082D00102DEA0E2C
:102B00003DF6095B10123A3D1805051B038D0010B8
:102B1000171D0B70157F5606001310038110040457
:102B200004064B2D00100005190810191B803C04E9
:102B30001B1717B0092D3B107C051D0D06182E0E16
:102B400004051A1D171818B66D001010051E1C0676
:102B5000037E50040304098042130F1E03F5057D14
:102B600000100D17020F2DE50541382DFF0F7C05D4
:102B700009090F160E103DD5110D187E0E7D00109F
:102B8000231D05801E043B094D9C051217FE298359
:102B90001F181B00101E0400100D19400D3D0010E1
:102BA0005DA20E1F1E187F098F060F2F0F1DE20F4B
:102BB0000E1816FE0E7D0010361DFF1D3A0B354710
:102BC0001D1C0741802C04051718020F0F1813183D
:102BD0008A0BBE1C00101D94098C050814070A718D
:102BE0000F1E1C88120119BD1DFB091E0F670E1C4C
:102BF000050C1108094C0B5C040404155713131C35
:102C0000067D5C060709080F0D00100E241F00103A
:102C10001C051E12050BF10D7611814D00100D1CC7
:102C2000FE0E1D00101004050C0D875C0404051A2F
:102C3000D7131E1DF7103C07060A0E0B07030010E2
:102C40000D174403BC041E1A17001070091E10084B
:102C50000A1609040E801C0419120F00100C041629
:102C60001B1D1F7C0D1D00101C04100C0760061D91
:102C7000F80D5F0709770C1C051E1E0E07870D1542
:102C8000141E06001006181B401C061D161506040F
:102C9000001071807C080D0A09110A050BE7073D39
:102CA000001000041511171BBF4D3B0E1E13E70942
:102CB0006C0704040A0A0A0D3A0314061E120B0AD2
:102CC0000A843D00100919C05C071B120C06040C95
:102CD00000102DBC0C2C08150D1214130A130E1421
:102CE0005D001019C00F190B10C3101D3B0F100809
:102CF00018120D0B090606F35E0F00101E10FA10D5
:102D00003C0406060800100D19060E2D001078046C
:102D10000604158A1D44131E10110A1E0FFF0F2DE5
:102D2000BF154D4B141DA40E1E09030B0D194C0E9F
:102D30002C071D1918120E07F0035E0200102DFD5E
:102D4000038C0402050D00100115381D00105F07EB
:102D50001100103D02151D72141102521D0F2D0A93
:102D6000050C04181D1309C0147D0010380818152F
:102D7000110E0C0A09075D01105C040D1013001000
:102D80000D177A042D81073F071D05141D00104EF5
:102D90001C00104DE90A1D520F1D7E0835021E0D44
:102DA000E6160F1C19160C071DAA0440051914116C
:102DB0000F84117C0C061D0F1112181B00101D69C9
:102DC000131D9A062E13B80E1D84043D00106C06C8
:102DD0001C19170D0D00101D0C072E185C16161669
:102DE000DC0D1F00101D36172D00101DE80C1D8175
:102DF0000D0C042014141600102D6E0C3E04C01788
:102E00001DFD0C5D3A141D6F132DB2131D00103DF6
:102E1000220E3F14132A0C1D280A0D170010C1851D
:102E20002DB20A2D89169D00100D183E061F191887
:102E30001A173E1167147C0415131A00103E040083
:102E4000102DA4183C041A1512D80F0007211506DE
:102E500006061516802D6F093D170903201D1D2E2E
:102E60001C041F141ABD162D21084C061E1D181215
:102E70001500101407071C0D040B1D952DFD1433B0
:102E80001616800008211E1E0606041213800D1758
:102E90005A0905137F1F151300101DFF091C041785
:102EA0001615AD142D6C125D00102C041E100B02B3
:102EB000151F1C15D3141D870A1E1BC10D0D1400F0
:102EC000101D250E2D61134E1C00101DE40F1E1D3C
:102ED000B8081D450A1D510F111F1D00106E190065
:102EE000100E101900102C041F170BA80C7C0A1AC6
:102EF00015100F0C1718101500103C060F1F1A02A2
:102F00000E8C151F121C54141D8E141E16E718EE7D
:102F10001B01124F1C1100101D36121B110F321A0B
:102F20001C7A1A1B422D00101313171F2F15168A17
:102F3000120C041011111D00103D3319140D180846
:102F40000605131B13110F0D0D11011D64051C0443
:102F5000160B0F00102C04111C0F00101C061D1660
:102F60001218150E032C051012161A800CEDC00C49
:102F70002D00101E1F00103C0F1F140E0D140D0D00
:102F8000151B0A0C0A141F0010120C161F1A0A0037
:102F9000102E1000102C041E130B0010EE17F60854
:102FA0001E1AD60E1D70132C090D0D0C0D0B1619C3
:102FB0000E6C033D00102C05131904144C121D3A1D
:102FC00010120E1D2C050C0C0E1E800DEE153A076E
:102FD0001C0403021CEA0F2C050D1F090400101E1F
:102FE0000B080E1DF70F1E06D50F131E05162C0419
:102FF00017020919161C060312111F0E9907F21465
:10300000802F191B000F33170C6326126D19723EA7
:103010000D00102E0D6E142005161117177E1005C9
:103020000C0C0F1E2AE219801C041A030300101F47
:10303000040EEC071C08101B1310151A033B131F7A
:103040001A050010121E161E1E80101E1BCD101E0B
:103050000394192D000E0D10C4161007171B04073A
:10306000031C80160C331C050D1A1A0B29161D0C97
:103070000D2F090400101D1404100511101D111A44
:103080001550221080FE1740111DF3061D7C185E9E
:103090000F00101DF4081C070D0805160411130C71
:1030A0002C0407050F00101DBB042E0500102F0F68
:1030B000040010FDFF0C250013191862160BB41A3A
:1030C00014391C051D1E191700102E10CE121C09D4
:1030D0001E170F16160E0C0BC9150404130C111D28
:1030E000001D5B181E1300111DC6031D00101D439B
:1030F0000E2C07030D0E050D0A00104D800F3180B8
:103100003D0010DE0400107E1F001013161A7F17FA
:103110000A0A012C04191A096D092C051B150B1537
:10312000760B1C071E100E1C0F0A5216159D1F133E
:103130001D290EDF1B15F41511F82C05151A0704AF
:1031400000101A16EE1213801DA914431014801DCE
:103150009F111E08BA046180F21BFF2D00101DFF95
:103160000D131C0D801DB0161C040A1417E5161D46
:10317000EF0F2DF7111DFC1B1C051A0F12174D0622
:103180001B0909D02F1619800FED8A0B3C0A1A0271
:1031900003181C07030D1D00101F0A14001015133F
:1031A0006D00101F160FC80344041F1503802D0067
:1031B00010FDCA0B1616BE1E0EF2081F0B0A2B08B6
:1031C0006C06080F151413A4112C0C1E1C17150DDA
:1031D0001612090906074A17FF1915001031803F1A
:1031E000011AEA122D00101E0500101C04010B1F0D
:1031F0006F101F1002001011124F060300103D57F0
:10320000140D1400103D00051C04100C0A62083C4B
:103210000406060A06035D400914071C120E090D78
:103220000BA00C08120506080C0E1B0D00101C0745
:103230001C0F0F1D1F12B8041C0418111066141067
:10324000111A1C0F141F10101F170F101F19111027
:1032500014123D00102D0D1B1F101080140E11179D
:1032600000062C0706031B130E083B0D2DB00B6F39
:10327000050B7A0C1D060D1D520C3DD30C0C0612CD
:10328000060C111E0500103D65063DB6071D7505AF
:10329000421D101D00104DBA191D02073DF9154DB4
:1032A00080180D1500101E1781151E107F101D02AD
:1032B000051DC0092D320F6DC00C1DB31E1D4E0B18
:1032C0001C04070A0C48081C04151714A6180D1036
:1032D000850B013880FDCD1E6DDE1F1DB51C1DFB4D
:1032E0000F2DFD09DD721B0D11FF1E2D99082C04F9
:1032F000160D1041161D00101F120DE61E1D500563
:103300003DBA1C1D00101D7D0E2C0505080C120079
:10331000101D59130C07180E0F0E1C1A1E10171D26
:1033200048115D021F1D6E0C2D05034E1D00200E61
:103330001C1C50071319195A2D641E2D001032063B
:10334000806D00102DFD0E2C0407080E00108C0758
:103350001F180F0E0F168E20C1803D0C152D431720
:103360002D86163D0010450D2D4E179D00100D1396
:10337000C1176C081C1B130D100C1F001015B36D2A
:103380000010220D80340406040A9E1C04100D0E49
:103390000F15ADBB15ED80104DEA1F35AC7E1D003D
:1033A000102D0120661A030113801D2D1F2E12F906
:1033B0000619B021F12DF10F6D001025803C040598
:1033C000040755180C05100F0D0F15040D8DB718B7
:1033D0001D8A177E17B0192E1C00106D99201D8DA7
:1033E0001F061818031D2D102C061A170B0E0C8023
:1033F000104E07700F3E080D211D5B192D7E102DFC
:1034000035172D530D0C06150E0D101C193A1B1DEA
:103410005F1A1D2A217E1BEA214F1B1500104991BE
:103420003D500A051A0218051C18140E661D88174F
:103430001D30031DBA0A4E0C810D2F1E167F111D63
:103440009D121F1A1EC9040C06150D13161D1C0310
:103450001D2D681772188B1D001E4E0E00107E1E4B
:10346000D6194D02117D2922EDC5061F1C0FBF077D
:1034700014041A1F08EE2D001051801D0010299011
:103480001E0795041D90086DC11F0111432DB21A2E
:103490007F1C1E70102F1E140010730917801DD181
:1034A000090F191C1D04121D64211DDE18240613AA
:1034B000170E0D0B038D00101D8E1D1C08090C0D21
:1034C00014140E0B9A0602171D803E1F74155DEC36
:1034D0001D1D00103C0411050C0010651F2D821DE0
:1034E000EDFA09BD34241F1A1BC2072C060C0E145A
:1034F000131082035E1A51231E1DB40D1C04090D06
:103500001280197C040C0A15FC06FE1E7B041D9B10
:103510001A5C0513151314780611803C040F070B71
:1035200000106D68191D5A14DF14123F11BDB42428
:1035300014091C1D191412110D10877C040A090BA3
:10354000F71B2E0F38081C060D0F0D0E124D1F8E87
:103550001C6E24E1806C0718180B0A070A9B091DD2
:10356000B9034C040A0912001049821F1A0D020700
:103570000C041916191C36151C051B1C1915A80856
:103580001B0A0EE88DDC061C040E0F0F3C081F0BF7
:1035900010060E7D6E25F1801D5C213C06120C0A82
:1035A0001014A8242E1EF7074C06140D1315140032
:1035B000103D88141D050B1DC30A0C0418141C1C97
:1035C00081101E1DE01B100414100EF015F05E1685
:1035D000CA161E10B90A3E0A3B0B2DF8054DE00530
:1035E0000D1081045C081B1A150B0D0A1888031DA9
:1035F000FD051F191B3D172F1D0F0226421A811DA5
:10360000FE1D0C07110C0D0E1B181F4322621E59C4
:103610001DF9242E126F201F0A09AF0B1D061F1F54
:103620000C0AD4094C06080A111419D41401158087
:1036300038081D1B15110D0D14645DFE251C041D9D
:10364000181C8E1B4D00102D8F202D13131D4005AF
:103650000D14C4215D691D3DA8221DAA1720061264
:1036600011100F10011E0F53121D051F1E144A24A6
:103670009E1DE7047DBC1B61092F1C1B9A063D8B18
:103680001F2E1787191D3E172D171A4DFD1E1E1EC2
:1036900002164D1A041D601C0C04120C1C1841204B
:1036A000492631841D0C182DC90D21853F1011515B
:1036B000181DBB03921DA9BDBC196DE6173C040F74
:1036C0000F0EEC221F1815AA202D0B1E1F1A1A32DE
:1036D0000D3D7C21290F3E167C041E19210DBDC312
:1036E000139DB72771D82D74083E1BE90D1C0417D4
:1036F0001717CE102D381E9D2D1B0112801D1C0585
:1037000051FF4C041F1213081F1C051A15150CB28B
:10371000036D2C1C5D00109407120D0F0E1E1B482C
:10372000DDC5038D4E0721C43D800FEDE5067528EC
:10373000AD010C331A11FF2D00104E1203044C0979
:1037400017101A110D0E1A1104271DDC0435621E04
:103750001840083D450475C80E191E0C20DD7F1F5A
:10376000CDA921A1803806141D0D110C3F4C051D5B
:10377000181114B7251E0A161B3F121F7F1E2DE0BD
:10378000083D9E101DC11C1F100E0213ED480301C1
:103790003201AD03061C0417170EB00A1E1D6B1A6A
:1037A0002D001025012C0B180D141F170D131F15BC
:1037B0000F94032F1C1553242D7D042C05160F0F79
:1037C000134D228D48044D1D171D851F2D35182DB5
:1037D000B70C2DD10E2E1C0A082D36033D35071DC2
:1037E0008C211D7F031DD6133D5D299D8D226DDE2D
:1037F000171D260B1F0F13E60F1DB0032C041719FE
:103800001002121E10CD181F180CC5292E07972163
:103810001C051A13111BBB081E14FC03DC060D103B
:103820000D1E1A052A1D2A231E1E261D1DE3072C08
:10383000041B15132A131D441B3D4C081E1796101C
:103840001DCF1C1C07151819141619521E1D9D2872
:103850001E19491BD6188B14041D1B0F571DBA0EB9
:103860001D650F1E11C01311CE240A180E121E184A
:103870000B151D13001C051D151116D80F130E1066
:103880005DEC050D110D1D82231E1DE91B3D000C75
:103890001C04171311B3251F171E060C1C07191F34
:1038A0001311121096201DC4231C040E121A760F39
:1038B0001E138527100416121381DE197E241C04A2
:1038C0001B1D0CE40D1E18FE0E1D39202E170010B6
:1038D0001D6B132C08071C190B161B08C8281C0588
:1038E0001C11101B1B102D8210221F80A215802D71
:1038F0002B271F0A0A1C141E0ADF0F1DF8151C05B2
:103900000E070F1FB20C1F131F78061C0A0A1F0F89
:103910000C101F1C080D170B1F0C0CD81FDC0812F5
:103920000C0D1B181619BE0310051A1E0B10D63EDF
:103930000C630F1D00101E11B2031C08170F191481
:103940000B1219BB1C1D00102C04101616FE0F15AF
:103950001E2180DF1C16380B1F1D0CB7111DFE0821
:10396000100E1E0D0C151E1713171E0A120E100531
:1039700011801A10C41C041D090D980B1B0D0C009E
:10398000EC07120D0E1713184D0B1C04181F0BBD5E
:103990000A11802D7F0F1C050C1A190B4A221D439A
:1039A000241C050F0A0E166C22161E5F3D001051D6
:1039B00080F30E1B801E0D67054C070F0E131D0CA8
:1039C0000DF60B130B17A61C060A190D0B1F911DE4
:1039D0001DF62B1D5C222F1A0D1F0BFC06130D0F5D
:1039E000130E810A35005F1C1900103E13001019D8
:1039F0002A1D02071E19022A1E1E0B211E161C0F4D
:103A00001E0BA0101804121F0C00EDC01D1C071D7A
:103A10000D0E151810F51D1D210E2DEE221C081E71
:103A20000B16170D1410D10F1D710C21801E0D3BAC
:103A30000561803D5F22DDB80729005E1A00102C69
:103A4000050B0D181900101C041A1D196B251DCE2D
:103A50001D121D9C1D45082D0010230B1480FE1EF9
:103A6000C02221782E112E042180100B13151E0A5E
:103A7000161D0C0B171B80620F801D1C094180EF67
:103A80001F1BFB2C1DBE1B1D00038F171D00101ECE
:103A90000EAF261E1C7B0F1D100A1D4B2B6D001038
:103AA000159F3E170003EDC00F1C061C0A0B1C1FC0
:103AB000DF091C0E1F110C1218130C161D08131E03
:103AC0000AF41119971C07140B0E19160A982B1FCC
:103AD000170A05111C051F120B0D1A168E19F62D4B
:103AE0005D7F161E12570419BE1D02091C0506092A
:103AF00008103C2679A33D00101E1100101DCC2695
:103B00001F0B0A5B0F15AADD00201C041F1C07E118
:103B1000101C080B080F1F1709097F0D1C10171D1B
:103B200006111F07061F1608081F18080910081D90
:103B3000180C100416070780DC08110A0B0E0D097B
:103B400012C0041DA42A1C040E100F1D038D0010AA
:103B50005613261D7C131D55031E0B49281DC50D2C
:103B60001C050B0D1C150005FDC12D1F1D133B175A
:103B70001E156A141C061B14141814361D1D8414FB
:103B80001DA61F1F1A14B8222C0513141816580846
:103B90003E1BB71F1C041814158F29E219801C0640
:103BA000151E0C100BAA093DBA1E3D00104E0CAAA2
:103BB0002A1DD90C4C040E07061610170406628C39
:103BC000050E100D195C2B0D130B0D0D24FE05DDDC
:103BD0003B0B1DB4286C05161A161400106C040556
:103BE000080E00101DCF0E2E04C0191C040F111159
:103BF00081200006470E0F0D1A17801E0104306E3B
:0C3C0000100D3000040024F4000000004F
:040000050800018965
:00000001FF
