:020000040800F2
:100000006044002071020008871700084B150008A3
:1000100085170008CB040008451E000800000000FA
:100020000000000000000000000000008B17000826
:10003000CD04000800000000891700088D17000893
:100040008B0200088B0200088B0200088B0200085C
:100050008B0200088B0200088B0200088B0200084C
:100060008B0200088B0200088B0200088B0200083C
:100070008B0200088B0200088B0200088B0200082C
:100080008B0200088B0200088B0200088B0200081C
:100090008B0200088B0200088B0200088B0200080C
:1000A0008B0200088B0200088B0200088B020008FC
:1000B0008B020008311800083D1800088B02000868
:1000C0008B0200088B0200088B0200088B020008DC
:1000D0008B0200088B0200088B0200088B020008CC
:1000E0008B0200088B0200088B0200088B020008BC
:1000F0008B0200088B0200088B0200088B020008AC
:100100008B0200088B0200088B0200088B0200089B
:100110008B0200088B0200088B0200088B0200088B
:100120008B0200088B0200088B0200088B0200087B
:100130008B0200088B0200088B0200088B0200086B
:100140008B0200088B0200088B0200088B0200085B
:100150008B0200088B0200088B0200088B0200084B
:100160008B0200088B0200088B0200088B0200083B
:100170008B0200088B0200088B02000800000000C0
:100180008B0200088B02000800F002F800F060F813
:100190000AA090E8000C82448344AAF10107DA45E2
:1001A00001D100F055F8AFF2090EBAE80F0013F0D4
:1001B000010F18BFFB1A43F001031847141F00007A
:1001C000341F000010F8013B0A4413F0030408BF79
:1001D00010F8014B1D1108BF10F8015B641E05D01B
:1001E00010F8016B641E01F8016BF9D1002D15D0D8
:1001F00010F8014B03F00C030C2BA1EB04040ABF15
:1002000010F8013BA4EB8314A4EB032405F10103D4
:1002100014F8016B5B1E01F8016BF9D5914238BFF0
:1002200010F8013BD1D3704700230024002500269D
:10023000103A28BF78C1FBD8520728BF30C148BF49
:100240000B6070471FB501F023FF1FBD10B510BD37
:1002500000F001F91146FFF7F5FF01F053FE00F041
:100260001FF903B4FFF7F2FF03BC00F027F9000009
:100270000948804709480047FEE7FEE7FEE7FEE73A
:10028000FEE7FEE7FEE7FEE7FEE7FEE70448054976
:10029000054A064B70470000211800088901000834
:1002A000603E00206044002060400020604000204C
:1002B00053EA020C00F069802DE9F04B4FF0000684
:1002C000002B1FBFB3FA83F503FA05F424FA05F6F1
:1002D0005E4012BF1643B2FA82F502FA05F4C5F188
:1002E00020051EBF22FA05FC44EA0C04203556EA1C
:1002F000044C4FEA144418BF641C4FF000084FF040
:100300000009904271EB030C39D3002919BFB1FAEF
:1003100081F701FA07F6B0FA80F700FA07F6C7F19D
:1003200020071EBF20FA07FC46EA0C062037B6FB62
:10033000F4FCA7EB0507103F07F01F0BCBF12006DD
:100340000CFA0BFB2CFA06F644BFB3460026202F0E
:10035000A4BF5E464FF0000B5BEA060C08BF4FF0EF
:10036000010B19EB0B09ABFB027C48EB0608C01B29
:1003700006FB02CC0BFB03CC71EB0C01C1E70B4677
:10038000024641464846BDE8F08B13B54FF00000E9
:100390004FF00001AFF30080BDE81C40704710B57E
:1003A000203AC0F00B80B1E81850203AA0E818506D
:1003B000B1E81850A0E81850BFF4F5AF5FEA027C2E
:1003C00024BFB1E81850A0E8185044BF18C918C09D
:1003D000BDE810405FEA827C24BF51F8043B40F83E
:1003E000043B08BF7047D20728BF31F8023B48BF23
:1003F00011F8012B28BF20F8023B48BF00F8012B61
:1004000070474FF0000200B51346944696462039D7
:1004100022BFA0E80C50A0E80C50B1F12001BFF4BD
:10042000F7AF090728BFA0E80C5048BF0CC05DF823
:1004300004EB890028BF40F8042B08BF704748BF71
:1004400020F8022B11F0804F18BF00F8012B7047E5
:10045000704770477047754600F02CF8AE460500AF
:100460006946534620F00700854618B020B5FFF7CF
:100470000DFFBDE820404FF000064FF000074FF0A1
:1004800000084FF0000B21F00701AC46ACE8C009B2
:10049000ACE8C009ACE8C009ACE8C0098D467047BB
:1004A00010B50446AFF300802046BDE81040FFF7CA
:1004B000D8BE000000487047003E002001491820C7
:1004C000ABBEFEE7260002007047FEE77047000063
:1004D00070B5044600F00CF90546601C02D00448D3
:1004E0000078044400F004F9401BA042FAD370BD28
:1004F0000C1800202DE9F84FDFF8BCA100220125DF
:1005000003264FF00F090AF1040BAAF1040E00BFF5
:100510000B6805FA02F42340A34270D10F7907F06B
:100520000307012F01D0022F16D187684FEA420836
:1005300006FA08FC27EA0C07D1F80CC00CFA08FCF4
:100540004CEA070CC0F808C04768A7430C79C4F30D
:10055000001494403C4344600C79E443A4070AD05F
:10056000C4684FEA420C06FA0CF7BC438F6807FADE
:100570000CF72743C7600C7904F00304022C12D156
:10058000D40800EB840CDCF820405707FF0E09FA72
:1005900007F824EA0804D1F8108008FA07F848EAB6
:1005A0000408CCF8208004684FEA420C06FA0CF7E5
:1005B000BC430F7907F0030707FA0CF727430760DE
:1005C0004C6814F4403F70D03C4C276847F4804797
:1005D0002760246822F0030704F480440094384C18
:1005E00007EB040CDCF8084897074FEA177809FA7C
:1005F00008F7BC43334FB84202D1002724E054E04F
:10060000314FB84201D101271EE0304FB84201D12D
:10061000022719E02E4FB84201D1032714E02D4FD5
:10062000B84201D104270FE02B4FB84201D1052772
:100630000AE02A4FB84201D1062705E0284FB84208
:1006400001D1072700E0082707FA08F72743CCF86D
:100650000878DAF800405746D1F804C09C435FEAB6
:10066000CC2C00D51C433C60DBF800405F46D1F841
:1006700004C09C435FEA8C2C00D51C433C60DEF830
:1006800000407746D1F804C09C435FEA8C3C00D51B
:100690001C433C60084F083F3C68D1F804C09C43B1
:1006A0005FEACC3C00D51C433C60521C102AFFF48E
:1006B0002FAFBDE8F88F0000083C014044380240ED
:1006C00000300140000002400004024000080240E7
:1006D000000C0240001002400014024000180240CA
:1006E000001C02400AB1816170470904FBE7000069
:1006F00001488068704700000C180020024881689B
:1007000002781144816070470C1800200B4810B526
:10071000016841F400710160016841F48061016089
:10072000016841F480710160032000F06FF80F2030
:1007300000F006F800F024F8002010BD003C024054
:1007400070B50D4D04464FF47A712878B1FBF0F086
:100750000A490968B1FBF0F000F098FB48B9102C89
:1007600007D200222146501E00F030F800206C60B5
:1007700070BD012070BD00000C180020181800206A
:100780000A4808B5016841F480410160006800F43E
:10079000804000900548001F016841F080510160D1
:1007A000006800F08050009008BD0000443802400E
:1007B000002809DB00F01F02012191404009800060
:1007C00000F1E020C0F8001170470000F0B40E4BBB
:1007D0001B680C46C3F30223C3F10705042D00D99F
:1007E0000425191D072901D2002300E0DB1E012684
:1007F00006FA05F1491E214099409E40761E16409A
:100800003143F0BC01F01FBB0CED00E0064900F0E5
:10081000070208684FF6FF03184040EA0220034A27
:1008200010430860704700000CED00E00000FA057E
:100830002DE9F0418AB0040005D094F8BD04266883
:10084000002520B108E001200AB0BDE8F08184F85D
:10085000BC54204600F05EF8032084F8BD04F06B21
:10086000C00500D42561206801F07AFA04F1100176
:10087000282288466846FFF792FD94E80F0001F0B1
:100880004DF90226C8BB0021206801F0ADFA002016
:1008900001270EE000EBC00104EB810181F83D70FF
:1008A00001F83C0F08810D71CD600D61401CC0B294
:1008B0008D6161688142EDD8002011E000EBC0013C
:1008C00004EB810181F87D5281F87C0281F880522D
:1008D000C1F88852C1F88C52401CC0B2C1F8945281
:1008E00061688142EAD8282241466846FFF757FDF1
:1008F00094E80F0001F07AF910B184F8BD64A2E722
:1009000084F8385084F8BD74206801F061F9002043
:100910009AE7000010B586B0044614216846FFF738
:1009200070FD2068B0F1A04F27D115480021026862
:1009300042F001020260006800F0010005904FF4EF
:10094000C05000900220CDE90101032003900A204D
:10095000049069460B48FFF7CDFD0948001D01686A
:1009600041F08001016006481430016841F4804183
:100970000160006800F48040059006B010BD0000E2
:1009800030380240000002402DE9F0470E460500D5
:1009900065D0DFF81481D8F80000F7B200F0070046
:1009A000B04207D288F80070D8F8000000F00700C5
:1009B000B04254D128683D4C810712D5400703D579
:1009C000206840F4E05020602878000703D52068B4
:1009D00040F4604020602068A96820F0F0000843DF
:1009E00020602878C0072DD0304968680839012870
:1009F00012D0022813D0032811D0096889070029D2
:100A00002DDA216821F0030101432160FFF770FE18
:100A1000814641F2883A0EE009688903EFE70968E8
:100A20008901ECE7FFF764FEA0EB0901514502D90B
:100A30000320BDE8F0872068696800F00C00B0EB87
:100A4000810FEFD1D8F80010404601F00701B14204
:100A500007D90770006800F00700B04201D00120FC
:100A6000E7E72878400705D52068E96820F4E050DA
:100A7000084320602878000706D52068296920F4FB
:100A8000604040EAC100206000F018F82168084A80
:100A9000C1F30311515CC84006490860064800686C
:100AA000FFF74EFE0020C4E7003C02400838024039
:100AB000BE2000081818002010180020154810B596
:100AC000006810F00C02144813D01449042A0FD007
:100AD000082A0ED10F4C241F2268236802F03F021F
:100AE0005B0207D52068C0F38810A0FB010106E077
:100AF000084610BD2168C1F38811A1FB0001002345
:100B0000FFF7D6FB2168C1F30141491C4900B0FB46
:100B1000F1F010BD083802400024F40040787D0157
:100B20002DE9F84F04006ED02078DFF84C93C00711
:100B3000A9F104054AD009F104000168C1F381015B
:100B4000012908D00068C0F3810002280AD1D9F831
:100B50000000400206D52868800337D56068002869
:100B6000E1D033E06068B0F5803F10D0B0F5A02F41
:100B7000286810D020F480302860286820F4802075
:100B800028606068A8B1FFF7B3FD06460DE028684D
:100B900040F48030F4E740F480202860F7E700BF9D
:100BA000FFF7A6FD801B642873D828688003F7D55B
:100BB0000CE0FFF79DFD064605E000BFFFF798FD3E
:100BC000801B6428F0D828688003F7D42078DFF8E9
:100BD000AC8280074FF0000A3ED5A748001D01688F
:100BE00011F00C0F08D00068C0F3810002280BD16F
:100BF000D9F80000400207D42868800716D5E068BD
:100C0000012800D112E033E1E068B8B10120C8F852
:100C10000000FFF76DFD064605E000BFFFF768FD29
:100C2000801B0228C0D828688007F7D5286821696A
:100C300020F0F80040EAC10028600DE0C8F800A0EC
:100C4000FFF756FD064604E0FFF752FD801B022821
:100C50001FD828688007F7D42078000722D5864F50
:100C600087486169703771B101210160FFF740FD6C
:100C7000064604E0FFF73CFD801B022809D83868CF
:100C80008007F7D50EE0C0F800A0FFF731FD06465B
:100C900005E082E0FFF72CFD801B02287DD8386834
:100CA0008007F7D42078400768D5DFF8CCB100275B
:100CB0000BF13C0BDBF80000C0000BD4DBF800109C
:100CC00041F08051CBF80010DBF80000012700F064
:100CD000805000906B4E3068C00510D4306840F4EE
:100CE00080703060FFF704FD009005E0FFF700FD25
:100CF0000099401A022850D83068C005F6D55E4EDB
:100D0000A0686C3601280FD00528306810D020F07C
:100D100001003060306820F004003060A068B8B195
:100D2000FFF7E6FC00900FE0306840F00100F4E7C8
:100D300040F004003060F7E7FFF7DAFC0099411A51
:100D400041F28830814266D830688007F4D50EE0E1
:100D5000FFF7CEFC009007E0FFF7CAFC0099411AAC
:100D600041F28830814256D830688007F4D42FB1E0
:100D7000DBF8001021F08051CBF80010A069C8B357
:100D80003D49091D0968C1F3810102294AD00228A1
:100D9000504607D0C8F8600000E03CE0FFF7A8FC30
:100DA00004463BE04746C8F86000FFF7A1FC064652
:100DB00005E000BFFFF79CFC801B02282BD82868A9
:100DC0008001F7D4D4E907010843A16A2E4A4908F3
:100DD00002EB0141626A41EA8211084394F82C1047
:100DE00040EA0161C9F8001001203866FFF780FC75
:100DF000044606E03EE000BFFFF77AFC001B022835
:100E000009D828688001F7D534E000BFFFF770FCEF
:100E1000001B022802D90320BDE8F88F2868800152
:100E2000F4D427E00128F7D0D9F80000E26900F4F3
:100E3000800191421CD1226A00F03F01914217D1FA
:100E400047F6C071626A0140B1EB821F10D1A26AFD
:100E50004FF0FF3300F4403103EB5202B1EB024F8D
:100E600006D194F82C1000F07060B0EB016F01D047
:100E70000120D1E70020CFE70438024000004742BC
:100E8000800E4742007000400000FFFF10B5401E7A
:100E9000B0F1807F01D3012010BD4FF0E0246061EC
:100EA0000F21601700F0CFFF0020A0610720206114
:100EB000002010BD7047704770B590F83C20012AA3
:100EC00032D0012480F83C40022280F83D200368A3
:100ED0005A689D6822F070060A6832435A60134BC4
:100EE00002689A4214D0B2F1804F11D0104B9A424E
:100EF0000ED0104B9A420BD00F4B9A4208D00F4B9A
:100F00009A4205D00E4B9A4202D00E4B9A4204D11F
:100F1000496825F080031943916080F83D40002125
:100F200080F83C10084670BD022070BD00000140F2
:100F30000004004000080040000C00400004014094
:100F4000004001400018004010B5040003D094F8A0
:100F50003D0010B107E0012010BD002084F83C00E6
:100F6000204600F01FF8022084F83D00211D206873
:100F700000F06AFC012084F8460084F83E0084F802
:100F80003F0084F8400084F8410084F8420084F86F
:100F9000430084F8440084F8450084F83D000020B4
:100FA00010BD000008B5154A0168154891420ED1E0
:100FB000016841F0020101600068002200F00200B7
:100FC000009011461D20FFF701FC1D2010E00D4A86
:100FD000914211D1016841F00401016000680022D2
:100FE00000F00400009011461E20FFF7EFFB1E20CA
:100FF000BDE80840FFF7DCBB08BD0000000400406E
:10100000403802400008004090F83D10012901D00E
:1010100001207047022180F83D100168CA6842F043
:101020000102CA6000681149884214D0B0F1804FB3
:1010300011D00F4988420ED00E4988420BD00E497C
:10104000884208D00D49884205D00D49884202D017
:101050000C49884204D1816801F00701062903D0B8
:10106000016841F00101016000207047000001406B
:101070000004004000080040000C00400004014053
:10108000004001400018004070B5044690F83C0054
:101090000025012817D0012684F83C60022084F83E
:1010A0003D002068826822F0770222F47F4282604D
:1010B0000868502838D00DDC20284FD005DC90B3CC
:1010C000102811D14AE0022070BD302846D04028B7
:1010D0000AD13BE060282FD070280DD0B0F5805F9A
:1010E00003D0B0F5005F12D0012584F83D600020E8
:1010F00084F83C00284670BDCB68D1E90121206806
:1011000000F013FC2068816841F0770109E0CB68AA
:10111000D1E90121206800F008FC2068816841F4D1
:1011200080418160E1E719E0CA684968206800F001
:10113000D1FC5021206806E0CA684968206800F0A8
:10114000DAFC6021206800F0FAFBCEE7CA68496843
:10115000206800F0BFFC40212068F4E722680146C7
:101160001046F0E7704770B50446006801694FF01B
:101170000005C943890715D4C168C943890711D43B
:10118000E91E0161012020772068806980072046E0
:1011900002D0FFF7E7FF04E000F0C0F8204600F0BF
:1011A00063F9257720680169C943490717D4C168E5
:1011B000C943490713D46FF004010161022020776D
:1011C0002068806910F4407F204602D0FFF7CAFFF4
:1011D00004E000F0A3F8204600F046F925772068E7
:1011E0000169C943090716D4C168C943090712D464
:1011F0006FF008010161042020772068C069800732
:10120000204602D0FFF7AEFF04E000F087F820464A
:1012100000F02AF9257720680169C943C90617D467
:10122000C168C943C90613D46FF0100101610820D9
:1012300020772068C06910F4407F204602D0FFF775
:1012400091FF04E000F06AF8204600F00DF92577E0
:1012500020680169C943C90708D1C168C943C907E2
:1012600004D1891E0161204600F064F920680169FB
:10127000C943090609D4C168C943090605D46FF0FA
:10128000800101612046FFF715FE20680169C9430E
:10129000490609D4C168C943490605D46FF0400125
:1012A0000161204600F050F920680169C9438906B0
:1012B0000BD4C168C943890607D46FF020010161CE
:1012C0002046BDE87040FFF7F6BD70BD10B586B092
:1012D000044614216846FFF794F82068B0F1804F67
:1012E00015D10C480021026842F002020260006839
:1012F00000F002000590082000900220CDE90101D5
:101300000120CDE9031069460348FFF7F3F806B062
:1013100010BD00003038024000040240704770B534
:10132000044690F83C0000260D4601280FD001200D
:1013300084F83C006AB1042A1DD0082A2FD00C2A58
:101340003FD00126002084F83C00304670BD0220CA
:1013500070BD206800F0FCFA2068816941F0080146
:1013600081612068816921F00401816120688169BF
:101370002A69114311E0206800F01AFB2068816996
:1013800041F4006181612068816921F4806181619B
:10139000206881692A6941EA02218161D2E72068D7
:1013A00000F03CFB2068C16941F00801C161206880
:1013B000C16921F00401C1612068C1692A69114332
:1013C00011E0206800F05EFB2068C16941F4006113
:1013D000C1612068C16921F48061C1612068C1696F
:1013E0002A6941EA0221C161ACE710B5040003D0CB
:1013F00094F83D0010B107E0012010BD002084F8F2
:101400003C00204600F01EF8022084F83D00211D1B
:10141000206800F019FA012084F8460084F83E00A4
:1014200084F83F0084F8400084F8410084F84200CA
:1014300084F8430084F8440084F8450084F83D00B3
:10144000002010BD08B50068B0F1804F08D10548F4
:10145000016841F001010160006800F001000090A6
:1014600008BD0000403802407047000010B5044637
:10147000022249B104290ED0082913D094F8410062
:10148000012816D0012010BD94F83E000128F9D1A2
:1014900084F83E200FE094F83F000128F2D184F850
:1014A0003F2008E094F840000128EBD184F8402068
:1014B00001E084F841200122206800F029FA164951
:1014C0002068164A884201D0904203D1436C43F40D
:1014D000004343642068884213D0B0F1804F10D09D
:1014E0000F4988420DD00F4988420AD00E498842E0
:1014F00007D0904205D00D49884202D00C4988425D
:1015000004D1816801F00701062903D0016841F088
:1015100001010160002010BD0000014000040140F5
:101520000004004000080040000C00400040014062
:101530000018004000680349884201D100F008BD4E
:1015400070470000000800407047FEE72DE9F041B9
:1015500086B014216846FEF754FF2C484FF000086F
:10156000016841F080010160016801F0800105918E
:10157000016841F001010160016801F0010105917C
:10158000016841F0020101600068214E00F0020094
:10159000059000220C213046FFF7A4F8012248F202
:1015A000F0013046FFF79EF81A4F012247F207413B
:1015B0003846FFF797F80420012402258DE8310012
:1015C000694630460395FEF795FF48F2F800CDE9ED
:1015D000000469463046CDE90245FEF78BFF07203F
:1015E000CDE9000469463846CDE90245FEF782FFA1
:1015F0004FF4E840CDE90004CDE902486946384699
:10160000FEF778FF06B0BDE8F081000030380240F8
:10161000000002400004024010B58AB00024079484
:101620001C2168460894FEF7ECFE15484FF08041F7
:1016300001600121C0E90114DC21C0E903148461C7
:10164000FFF7D3FE08B172B6FEE7079407A90C486E
:101650000894FFF731FC08B172B6FEE76020CDE9CF
:10166000000402940422694605480494FFF757FEDB
:1016700008B172B6FEE70248FFF728FE0AB010BDB7
:101680001C38002010B586B000241748009401943F
:101690000294039404941349059401604721C0E91E
:1016A00001144EF66021C0E903148461FFF74CFC7D
:1016B00008B172B6FEE74FF48050009069460A48C0
:1016C000FFF7E2FC08B172B6FEE7049404A90648ED
:1016D0000594FFF7F1FB002801D072B6FEE706B0D3
:1016E00010BD0000000400406438002010B586B032
:1016F000002416480094019402940394049412491F
:10170000059401604721C0E901141D21C0E90314BB
:101710008461FFF719FC08B172B6FEE74FF4805000
:10172000009069460948FFF7AFFC08B172B6FEE7C2
:10173000049404A905480594FFF7BEFB002801D0D6
:1017400072B6FEE706B010BD00080040AC380020BD
:101750000B4810B54FF0A041016004214160022206
:101760000021C0E90321C0E9062101624162C16292
:101770000163FFF75DF8002801D072B6FEE710BDE7
:10178000F4380020FEE7FEE770477047FEF7B6BF6B
:1017900030B593B030216846FEF733FE14210CA813
:1017A000FEF72FFE1C480025016841F080510160C2
:1017B000006800F0805011901848016841F48041A1
:1017C00001600068022400F4804011900120009024
:1017D000000401908001CDE9064019200890902076
:1017E000CDE9090403200B906846FFF799F908B189
:1017F00072B6FEE70CA90F2081E831004FF480504B
:10180000CDE90F0502210CA8FFF7BEF8002801D092
:1018100072B6FEE713B030BD4038024000700040A1
:101820000248016841F470010160704788ED00E0F2
:101830000148FFF798BC0000643800200148FFF71A
:1018400092BC0000AC380020F0B50268254C264D53
:10185000264E274F274B4FF0804CA04209D06045C1
:1018600007D0A84205D0B04203D0B84201D0984278
:1018700004D122F0700E4A6842EA0E02A0421BD048
:10188000604519D0A84217D0B04215D0B84213D045
:10189000984211D0184DA8420ED0184DA8420BD036
:1018A000174DA84208D0174DA84205D0164DA842A2
:1018B00002D0164DA84203D122F44075CA682A43CB
:1018C0004D6922F080022A4302608A68C2620A6877
:1018D0008262A04201D0984201D1096901630121CD
:1018E0004161F0BD000001400004004000080040DC
:1018F000000C004000040140004001400044014051
:101900000048014000180040001C0040002000403A
:1019100010B501F01F030121046A99408C43046251
:10192000016A9A401143016210BD10B5846842EA11
:10193000032224F47F440A432243826010BD82685C
:1019400022F070020A4342F00701816070470000F4
:10195000F0B5026A22F001020262036A42688469F9
:10196000124E24F073050C682C4323F002058B689B
:101970002B430D4DA84201D0B04205D123F00807FA
:10198000CB683B4323F00403A84201D0B04205D109
:101990004D6922F4407215438A692A43426084618A
:1019A000496841630362F0BD00000140000401404A
:1019B000F0B5026A22F010020262026A436884698A
:1019C0000D6824F4E64444EA05248D6822F02002E0
:1019D00042EA05120F4D104EA84201D0B04206D186
:1019E000CF6822F0800242EA071222F04002A842A9
:1019F00001D0B04207D14D6923F4406343EA850327
:101A00008D6943EA850343608461496881630262AA
:101A1000F0BD00000000014000040140F0B5026A82
:101A200022F480720262026A4368C46922F400727E
:101A300024F073050C68124E2C438D6842EA05228F
:101A40000E4DA84201D0B04206D1CF6822F4006208
:101A500042EA072222F48062A84201D0B04207D1B4
:101A60004D6923F4405343EA05138D6943EA051396
:101A70004360C4614968C1630262F0BD0000014077
:101A80000004014030B5026A22F480520262046A06
:101A90004268C3690D6823F4E64343EA05238D6871
:101AA00024F4005444EA0534084DA84202D0084DFD
:101AB000A84204D14D6922F4804242EA8512426074
:101AC000C36149680164046230BD00000000014048
:101AD0000004014010B5036A046A24F001040462A2
:101AE000846924F0F00444EA021423F00A020A4351
:101AF0008461026210BD10B5036A23F01003036213
:101B00008369046A23F4704343EA023224F0A00399
:101B100043EA01118261016210BD000070B5044604
:101B200006990A9E049D0D98012916D0E06840F0A0
:101B30004000E060204600F02BF8A16B1EB321F4BA
:101B40008031A163012D07D1A16841F00601A16098
:101B5000A16841F02001A16070BDA16B21F480312A
:101B6000A163E168094A1140E160E16821F4401194
:101B7000E160012803D1E06840F48010E060204675
:101B800000F006F8DEE741F48031DAE7BFFFBDFF81
:101B900008B500220D490092009B5B1C00938B420C
:101BA0000CD80369002BF7DA0092026942F00102B7
:101BB0000261009A521C00928A4201D9032008BD9A
:101BC0000269D207F5D1002008BD0000400D0300D6
:101BD000D0F8001E21F00301C0F8001ED0F8041850
:101BE00041F00201C0F80418002070472DE9F04FC1
:101BF00000250E460446DDF82CC0DDF824B0109F09
:101C00002846294604EB8002C2F80411401C0F2824
:101C1000F8D32046C7B1806B20F40012A263A06BFA
:101C200040F40022A26308468846C4F8000ED4F8A7
:101C300000182046C4F80018BCF1010F16D0D0F8E7
:101C4000001841F0030116E0D0F8040840F0020249
:101C5000C4F80428A06B40F40012A263A06B20F427
:101C60000022A263A06B20F48022DBE7D0F80018EA
:101C70000BB141F00101C0F80018102100F094F8F8
:101C800000B10125204600F071F800B10125404661
:101C9000C4F81088C4F81488C4F81C8800214FF0D8
:101CA00000694FF0904A4FF67F3314E004EB411285
:101CB000D2F800C9BCF1000F06DA11B1C2F800A9D0
:101CC00004E0C4F8009901E0C2F80009C2F8100964
:101CD000C2F80839491C8E42E8D8002115E000BF3F
:101CE00004EB4112D2F800CBBCF1000F06DA11B1BF
:101CF000C2F800AB04E0C4F8009B01E0C2F8000B9E
:101D0000C2F8100BC2F8083B491C8E42E8D8D4F840
:101D1000101821F48072C4F81028A0616FF0804080
:101D20006061BBF1000F03D1A06940F01000A06119
:101D3000A06909490843A0610C9818B1A06940F056
:101D40000800A061012F03D1A06904490843A061E4
:101D50002846BDE8F08F000000383C8004000040B9
:101D6000816821F0010181600020704708B50022E0
:101D70000C490092009B5B1C00938B420AD80369BC
:101D8000002BF7DA009210220261009A521C009296
:101D90008A4201D9032008BD0269D206F5D4002089
:101DA00008BD0000400D030018B500230D4A009344
:101DB000009C641C009494420CD80469002CF7DA4F
:101DC0000093202343EA811101610099491C00918D
:101DD000914201D9032018BD01698906F5D400207C
:101DE00018BD0000400D030070B50446C068002512
:101DF00020F0C040E060012901D079B120E0E06826
:101E000040F00050E0600120FEF762FB60696D1C4D
:101E100010F0010F10D1322DF5D30DE0E06840F045
:101E20008040E0600120FEF753FB60696D1C10F0FC
:101E3000010F01D0322DF5D3322D01D0002070BD1D
:101E4000012070BDFEE70907090E002804DB00F140
:101E5000E02080F80014704700F00F0000F1E0204F
:101E600080F8141D704700002DE9F04F234BDFF878
:101E700090A000244FF0010B0025A00100F580691F
:101E800000220BFA05F105EBC40C02EB8417FE18D7
:101E9000002096F8008C18EA010F00D0402096F838
:101EA000008818EA010F01D040F00800DF5D0F4202
:101EB00001D040F0040006F5805637780F4201D07B
:101EC00040F0100009EB0207DF5D0F4201D040F047
:101ED000200096F800640E4201D040F0800002EB32
:101EE0008C17521C0AF80700402ACEDB6D1C082D07
:101EF000C6DB641C102CBFDBBDE8F08F080000209F
:101F00001C180020FEF702FCFFF742FCFFF71EFB47
:101F1000FFF782FBFFF7B6FBFFF7E8FBFFF718FCC4
:101F200004210948FFF7A2FA07489030FFF76CF840
:101F3000FFF79AFF054C002520780128FCD1257079
:101F4000FFF792FFF8E700001C3800200818002077
:101F50002DE9F04FDFF884900025D9F80000856363
:101F60001F4B204EDFF880A05A781978DFF87CB03C
:101F7000B75C1F4C28464FF4803E01EBC70700BFFB
:101F800000EB87181AF80880CBF81480C4F800E03A
:101F90004FF0010CC4F800C0401C4028F0DB114891
:101FA000143830F81110D9F800008163B05C00F0EB
:101FB00021F84FF480502060000420601878401C05
:101FC000C0B21870082807D11D705878401CC0B2E4
:101FD0005870102800D15D70BDE8F08F1C380020CB
:101FE00000000020AE2000081C1800200000024065
:101FF00018040240174910282BD2DFE800F0080A25
:102000000C0E10121416181A1C1E20222427124817
:102010001EE012481CE012481AE0124818E012486C
:1020200016E0124814E0124812E0124810E012487C
:102030000EE012480CE012480AE0124808E012488C
:1020400006E0124804E04FF4193001E046F2024085
:102050000860704718040240000002640200006437
:1020600000400224024000240004026002040060D8
:1020700000440220024400200020024402200044C8
:1020800000600204026000040024024002240040B8
:102090004FF04070E1EE100A7047020004000800A3
:1020A0001000200040008000000100020004000831
:1020B000040C020A060E0109050D030B070F0000B0
:1020C00000000000000001020304060708090000E8
:1020D000F0200008000000201C180000C4010008C7
:1020E000302400081C180020442C0000280200089E
:1020F0005200010229DA0133D7FF010335E2DA0188
:1021000033D9E4400236D74023DAD4400337F6D936
:102110004032D5C0013840023DDB4032E580023715
:10212000D840063CEF40000937D9F9FFFFF7FFFF21
:10213000D640000539FFFFFED8C0114012D8400A32
:1021400036DF40198008061BD8DADCFFE964011B82
:102150004000071ADEDADAD8FFF33F011A403AD519
:10216000BB0B1AE1FEE3061AE08022E6860A1AD6C5
:10217000810719D8E8FF36E7BA0719D9EB810B199F
:10218000D7F27F42DE790219D78004041FD6FBD92B
:102190005C0D1A80030E39D85E032D22030E39E040
:1021A0001E032D22030E39EA5E042D62030E38F45D
:1021B0001E0339E200043BFEFFD54000043AFFFF56
:1021C000DB801D5E030E37E49E0511011DE2052232
:1021D000ED080D316305113D1FD7D7A10512F80792
:1021E0000232D7401C06F6FEFEFEFDE00411070D8C
:1021F00033630473D8FF010E32FD230673D9FD400B
:1022000009354471800636D8BD4D61070E35DC3D79
:1022100003023CDEBF0D13730792250142165FA235
:102220005A14012A4033246340023613402F2506F6
:10223000FF060337CE2440320AC0013840322C401A
:102240000237214032674002371B4032A440063734
:102250001580040836DFFFFFD3FFFF0FC0000639EB
:1022600023FFFFFA19C00009361FFFFF1F1EFFFFE3
:102270004540117C00061A1C2533FF7F400A19D9FE
:10228000C0200413FF42450219BB40021AD9401472
:10229000040BFF16C500041951F92440061AE0800A
:1022A000426D8602182280FD0008A5FF3672BA0032
:1022B0000418248B1D40FD0008A97F4E403A0302FC
:1022C000191880FD0008A90051380D1A8003FD007F
:1022D00008021D25010D1E0008012D40FD0008010A
:1022E0002D40FD0008012CC00D100008012D40FDFF
:1022F0000008012C800D1000080128400D14000872
:102300000127400D1500080128400D140008012880
:10231000C00D1400080529000D130008092A400DFE
:102320001200080529C00D130008012A800D1200B3
:1023300008051EC002291D014E1F33100336151D4E
:10234000013E15731002371F4022217F0237063FDE
:10235000331D2080013840023D1C403614000237F6
:102360001E40063D0B400008370400000500002019
:102370004021BD053A00213C040436000018BF117D
:102380007C0406361E1D1B0011FF221F7B0804382B
:102390001E00093F25BB061B17010A1A173F4213EF
:1023A00086011AE3011ADD4612FA0A190F410B19C8
:1023B0001F0ABF521964051A23033C031D01023C86
:1023C0000040023D18400E390F5E032D62030E39A6
:1023D000089E0449E2023D2040063A1C811D9E03EE
:1023E000023A14401DE20502380D7D1F1E1EA10594
:1023F0001205070D33E2041E06DC055E0196160287
:10240000341EFC6DD5160E3601DE0401397F6D1EBB
:10241000060D38620671C10E351A9F06023119BFCA
:102420005600766E10111800040024F4000000001D
:040000050800018965
:00000001FF
